:020000040040BA
:1000000078EA4020CD1D4000CB1D4000CB1D4000B4
:10001000CB1D4000CB1D4000CB1D40000000000068
:10002000000000000000000000000000A5214000CA
:10003000CB1D40000000000045224000AD224000E2
:10004000CB1D4000CB1D400025444000B94440007A
:10005000CB1D4000CB1D4000CB1D4000CB1D400000
:10006000CB1D40000000000045174000591740001C
:100070006D174000CB1D4000CB1D4000CB1D400044
:100080008117400095174000CB1D4000CB1D40005C
:10009000CB1D4000CB1D4000CB1D4000CB1D4000C0
:1000A000CB1D4000CB1D4000CB1D4000CB1D4000B0
:1000B000CB1D40005D024000CB1D4000CB1D400029
:1000C000CB1D4000CB1D4000CB1D4000CB1D400090
:1000D000CB1D4000CB1D4000CB1D4000CB1D400080
:1000E00071024000CB1D4000CB1D4000CB1D4000E5
:1000F000CB1D4000CB1D4000CB1D4000CB1D400060
:10010000CB1D4000CB1D4000CB1D4000CB1D40004F
:10011000CB1D4000000000000000000000000000B7
:10012000CB1D4000CB1D4000CB1D4000CB1D40002F
:10013000CB1D4000CB1D4000CB1D4000CB1D40001F
:10014000CB1D4000CB1D4000CB1D4000CB1D40000F
:10015000CB1D4000CB1D4000CB1D4000CB1D4000FF
:10016000CB1D4000CB1D400010B5054C237833B9A2
:10017000044B13B10448AFF300800123237010BD7A
:10018000600B402000000000E8BA41000C4B43B176
:100190000C480D4910B5AFF300800C48036823B933
:1001A00010BD0A48036833B97047094B002BF7D0DC
:1001B000BDE810401847064B002BF5D0184700BF8C
:1001C00000000000E8BA4100640B4020E8BA41009A
:1001D0000000000070B582B0026BC36A1340019347
:1001E00000241C4E1C4DA84214BF00200120050114
:1001F0000BE00E2C1ED8019A04F10C0101238B4058
:10020000134210D10134102C22D00B2CF1D8019ABA
:100210000123A3401342F5D02B1956F82330002BAD
:10022000F0D09847EEE72B1956F82330002BE9D091
:100230009847E7E7019A04F10F0101238B4013422D
:10024000E0D02B1956F82330002BDBD09847D9E7A4
:1002500002B070BD6CC940200040064008B502489D
:10026000024B984708BD00BF00C00340D5014000C5
:1002700008B50248024B984708BD00BF0040064041
:10028000D501400080697047C1617047C068704700
:100290002DE9F0419CB00446484D19AB95E80700A4
:1002A00003C31A8010AE05F10C070FCF0FC60FCF96
:1002B0000FC63B6833600DAB05F1300207CA03C3BC
:1002C0001A7004AE3C350FCD0FC60FCD0FC62B688C
:1002D0003370002503953A4B02934A278DF80C7032
:1002E000384B01931320384B9847384E01A93046BC
:1002F000374B984702233A4631462046354EB047A1
:100300002A4606212046344EB047012201462046A7
:10031000324FB8473248334B98472A460721204688
:10032000B047202201462046B8472A4607212046EA
:10033000B047411C102289B22046B8472A460721FF
:100340002046B047811C4B2289B22046B8472A4636
:1003500007212046B047C11C842289B22046B847F5
:100360002A4608212046B04719AA01462046DFF850
:100370007880C0472A4609212046B04710AA014686
:100380002046C0472A462E212046B0470DAA0146E6
:100390002046C0472A4638212046B04704AA0146D5
:1003A0002046C0472A4606212046B047811C01222C
:1003B00089B22046B8471CB0BDE8F081D88C400017
:1003C000801A060080D1F008C91840000080014062
:1003D000151B4000ED034000850640003D0740002E
:1003E000D828320001004020C5064000F0B587B093
:1003F00004460E461746816002738361002505613D
:1004000007209D4B98472060019505950223029394
:100410000390072304938DF8147001A93046974B7D
:100420009847401B18BF0120404208B107B0F0BDFB
:100430002568A87900EB400040008F4B984760602A
:10044000002301930493059307238DF804300223BE
:1004500002930390AB7903EB43035B000493237B8C
:100460008DF8143001A9A068844B9847003018BF5C
:10047000012040420028D9D127686068BB7903EB8E
:10048000430676000736B6B23A4606370021DFF853
:10049000F0C192F801E0157845EA0E2585EA4101A0
:1004A00011F0807F18BF81EA0C010232BA42F0D10C
:1004B000027843EA022383EA410212F0807F03D0EC
:1004C00082F4000282F01B02A6F10807012F12DD60
:1004D0000123DFF8ACE1C1184D78C15C41EA052188
:1004E00081EA420212F0807F18BF82EA0E020233D4
:1004F0009BB2BB42EFDB304410F8083C83EA420277
:1005000012F0807F03D082F4000282F01B0222F0FE
:100510007F450023019305938DF80460360A8DF81A
:10052000056002230293CDF80CD003230493237BB0
:100530008DF8143001A9A068504B984728B34FF0AC
:10054000FF33AB4240F08B802568A87998B1002337
:100550000133DAB29042FBD86268431EDBB201334A
:1005600003EB430302EB4301002053791844C0B26C
:1005700006329142F9D140003F4B98476061AB7918
:1005800073B100270126BE4637E09DF802209DF892
:10059000003043EA02439DF8012043EA0223D0E7FA
:1005A0006FF0030042E70130C0B262685319197955
:1005B00081421CD35B79002BF5D062682A445379C1
:1005C000002BF0D033461178626902F8131062698B
:1005D00002EB430250700133DBB262682A44991B7C
:1005E00092F805C0C9B28C45EDD81E46DBE701374D
:1005F000FFB223689B799F4207D207EB47035A005B
:100600001546636813447046D4E75BB31046013B5C
:10061000DBB2013303EB430302EB430200214379D6
:100620001944C9B206308242F9D1F1B16269137836
:10063000092B0FD000230133DBB28B420CD012F810
:10064000020F0928F7D15BB2B3F1FF3F10D0237737
:100650000020EBE60023F6E76FF00300E6E66FF01C
:100660000300E3E66FF00300E0E66FF00300DDE671
:100670006FF00300DAE600BFDD5D4000491B40007B
:100680001B00800003689A79D2B110B444682378C3
:100690008B420ED0A31D013AD2B2013202EB4202CC
:1006A00004EB4202934209D01C4613F8060B884221
:1006B000F8D1B4F801005DF8044B70470020FAE768
:1006C0000020704730B587B0002301930493059351
:1006D0008DF804100B0A8DF8053002230293039263
:1006E00003689A79BAB14468B4F801308B420FD0EC
:1006F000A31D013AD2B2013202EB420204EB4202E4
:10070000934216D01C460633B4F801508D42F7D1FF
:10071000E2780132D2B20492037B8DF8143001A941
:100720008068054B9847003018BF0120404207B051
:1007300030BD0022EFE700BFF51B400000B589B0D7
:100740008DF807200023039307938DF80C10090AF6
:100750008DF80D10022304930DF107030593012377
:100760000693037B8DF81C3003A98068044B9847DF
:10077000003018BF0120404209B05DF804FB00BF03
:10078000F51B40008269074B03EB52135B02D96BE8
:1007900002F01F02012303FA02F20A420CBF1846BC
:1007A000002070470707200030B587B004460D468B
:1007B000002205210D4B98470023019305938DF8E6
:1007C0000400000A8DF80500022302930395092313
:1007D0000493237B8DF8143001A9A068044B98473B
:1007E000003018BF0120404207B030BD85064000F0
:1007F000491B4000F0B585B004460E46174D184F12
:100800002046A84728B301A92046B847034610BB95
:100810009DF80430626912F81320092AF0D1227F72
:100820009B1A33709DF8053073709DF808309DF861
:1008300006101A0942EA011272809DF8072003F09F
:100840000F0343EA0213B3809DF80930B37100230C
:1008500001E06FF00303184605B0F0BD85074000C6
:10086000A907400010B51048104B98473E210020C2
:100870000F4B98470F4CA0470028FCD00E4B9847D1
:100880000E4A0F4B9A620F4CA0470028FCD0022062
:100890000D4B984700200D4B98470D4B98470D483E
:1008A000024B984710BD00BF000E2707A11F400054
:1008B0004518400099184000A9184000013F182031
:1008C00000060E40B9184000A9174000E11740008B
:1008D000951E400000A3E11110B50446104B984747
:1008E00080232360636843F001036360636843F01F
:1008F00010036360636823F0800363600021204677
:10090000084B9847636823F002036360636823F031
:100910000403636000212046034B984710BD00BFCD
:10092000E9184000151940002B1940002DE9F0414D
:1009300004460D46164615491846154B9847074676
:1009400000231A4629682046DFF85C80C047082249
:10095000296820460F4B9847FAB2296820460E4B6B
:1009600098470822296820460C4B98477208296846
:1009700020460B4B984786F0010202F001022968DD
:100980002046084B9847BDE8F08100BF80D1F008B1
:10099000071A4000F31940001D1A4000AD1940002D
:1009A000711940008F194000451A400008B543688E
:1009B00013F0040F06D009680F2900D908BD064BB3
:1009C000984708BD09680329F8D8012303FA01F103
:1009D000C943014B9847F1E7151940001AB110B40B
:1009E0000C46114406E00020704714F8013BC36038
:1009F000A1420CD043F69923026912F0020FF4D100
:100A0000013BF9D16FF002005DF8044B7047002004
:100A1000FAE73AB170B415460C460D44FF2640F291
:100A2000012112E000207047C66043F69923026955
:100A300031EA020204D0013BF9D16FF002000EE06E
:100A4000836804F8013BA5420BD043F69923026961
:100A500012F0020FE8D1013BF9D16FF0020070BC37
:100A600070470020FBE700002DE9F04180B90C46FB
:100A70009046002A0FDD8F18084E094D3068214638
:100A80002B6898470134BC42F8D14046BDE8F0815C
:100A90004FF0FF38F9E78046F7E700BFF4C9402080
:100AA000ECC940200138022815D82DE9F0410E4646
:100AB00014469AB10D46DFF838800C4FD8F8000084
:100AC00015F8011B3B68984700280ADBA81B013C6E
:100AD000F4D1BDE8F0814FF0FF3070471046BDE81B
:100AE000F0814FF0FF30BDE8F08100BFF0C9402039
:100AF000F4C940202DE9F0414FF400429E4B5A606A
:100B0000BFF34F8FBFF36F8F9C4B0022C3F850226F
:100B10005A6942F400325A61BFF34F8FBFF36F8FAF
:100B2000D3F88070C7F34E3607F007000430C7F3E0
:100B3000C907B7FA87FE0EF01F0EBFF34F8F4FF0B5
:100B4000FF3404FA00FC06FA00F004FA0EF407FA87
:100B50000EFE1D463A46734640EA0301C5F8601290
:100B6000013A2344B2F1FF3FF6D1013E6044B6F1B1
:100B7000FF3FEFD1BFF34F8F804B5A6942F4803271
:100B80005A61BFF34F8FBFF36F8F7D4A7D4951602C
:100B9000A1F580715160BFF34F8FBFF36F8FD3F812
:100BA000902222F00102C3F89022D3F8942222F07E
:100BB0000102C3F89422BFF34F8FBFF36F8F0A2057
:100BC000714CA0470B20A0470C20A0471020A04745
:100BD0001120A0476D4E4FF48078C6F81080C6F8FB
:100BE000A080C6F830806A4C4FF400656561C4F897
:100BF000A0506566C4F8905065652562C4F88450BD
:100C0000236F23F400632367636F23F40063636738
:100C1000C4F8C050C4F8D450C4F8B0504FF4001316
:100C20002366C4F8903063656362C4F88030226F35
:100C300022F400122267626F22F40012626763607E
:100C4000544AD2F8143143F01003C2F8143102F5BB
:100C5000B22210231366C2F8903053655362C2F873
:100C60008030116F19431167516F194351675360F9
:100C700008222266C4F8902062656262C4F880206F
:100C8000216F21F008012167616F21F00801616780
:100C900062602366C4F8903063656362C4F8803094
:100CA000226F22F010022267626F22F01002626748
:100CB000636000234FF400524FF060513046364FCE
:100CC000B84700234FF080424FF060513046B8479C
:100CD0000123FF224FF000613046B84701233F2235
:100CE0004FF000612D48B84701234FF4C0324FF058
:100CF00000612046B847012342464FF0006130466C
:100D0000B84701232A464FF000613046B847012317
:100D10004FF400224FF000612148B84700234FF400
:100D200000724FF080513046B8474FF400713046A2
:100D30001C4B98474FF0805174201B4CA0474FF03C
:100D400080517520A0474FF080517620A0474FF08A
:100D500080517B20A0474FF060511820A0474FF0F2
:100D600060510620A0474FF060515320A047532008
:100D70000E4B9847BDE8F08150180E4000ED00E0A2
:100D8000000C0E400C08005AC918400000120E401A
:100D9000000E0E40008008404D14400000160E402A
:100DA00000140E4059134000551540001D15400019
:100DB00030B40468B4F5A07F02D340F23F1404605D
:100DC0001468B4F5A07F02D340F23F1414600C689D
:100DD000B4F5F07F02D340F2DF140C601C68B4F568
:100DE000F07F02D340F2DF141C6004681568AC4247
:100DF00001D9056014600A681868824201D9086048
:100E00001A6030BC7047000010B582B006200A4B53
:100E10009847002303222C210848094CA0470023AF
:100E20000193019BFE2B05D8019B01330193019B8C
:100E3000FE2BF9D902B010BD3915400000800040EA
:100E40003D19400070B582B005460E461446062096
:100E5000144B98470023032229461348134DA847F3
:100E600000230193019BFE2B05D8019B01330193C5
:100E7000019BFE2BF9D90CB902B070BD06200C4BBA
:100E800098472246314608480A4B98470023019369
:100E9000019B5E2BF0D8019B01330193019B5E2BDC
:100EA000F9D9E9E739154000008000403D194000BC
:100EB0001D154000DD09400030B583B004460D46E5
:100EC00006200A4B98472A4621460948094B98476D
:100ED00000230193019BFE2B05D8019B0133019355
:100EE000019BFE2BF9D903B030BD00BF1D1540009A
:100EF00000800040DD094000014630B1034A044B48
:100F0000013BFDD19142FAD870477047A18601009C
:100F1000A086010000B583B058B948238DF807308A
:100F200001220DF107013620044B984703B05DF80C
:100F300004FBE8238DF80730F2E700BF450E4000C0
:100F400010B584B0ADF80E00013A0244ADF80C20A3
:100F5000ADF80A10013B1944ADF80810030A8DF8EA
:100F600004308DF80500C2F307238DF806308DF8A4
:100F7000072004220DEB02012A20104CA04700227A
:100F800011461046A0479DF80B308DF804309DF8AF
:100F90000A308DF805309DF809308DF806309DF83F
:100FA00008308DF8073004220DEB02012B20A047FA
:100FB000002211461046A04704B010BD450E400067
:100FC00008B5002211462920014B984708BD00BFF3
:100FD000450E400010B4C0F30744C0F30721064B90
:100FE00003F570721C705970987003339342F9D1F5
:100FF0005DF8044B704700BF7C0B402010B584B0F7
:10100000ADF80600ADF80410030A8DF80C30C0B23C
:101010008DF80D008DF80E308DF80F00042203A915
:101020002A200E4CA047002211461046A0479DF8EA
:1010300005208DF80C209DF804308DF80D308DF8CA
:101040000E208DF80F30042203A92B20A047002288
:1010500011461046A04704B010BD00BF450E400029
:101060002DE9F04387B08146032706AE46F8087D98
:101070005D4D28465D4B9847002400945C4B3A46F2
:1010800031462846DFF89881C0472246394628462F
:10109000584B984731462846574B984701202860BF
:1010A000686122462146554EB047C820544DA84796
:1010B000224621461120B047C820A84781238DF839
:1010C0000A308DF80B4010264FF001084B4F254693
:1010D00042460DF10A01FB20B8479DF80A30013362
:1010E0008DF80A300395039BFE2B05D8039B013333
:1010F0000393039BFE2BF9D92A462946D320B847F0
:101100000620404B984742460DF1090136483E4BB8
:1011100098470395039BFE2B05D8039B013303934C
:10112000039BFE2BF9D99DF80930B3401C4342467E
:101130000DF10B01FB20B8470395039A40F6FE73AF
:101140009A4206D81A46039B01330393039B9342AA
:10115000F9D9083E16F1080FBAD149F288439C42EA
:1011600003D0012007B0BDE8F08306AD482305F8A1
:10117000013D012229463620204EB0476420204CF4
:10118000A04704238DF8173001222946CF20B0470D
:101190006420A04706238DF81730012229463A2003
:1011A000B0476420A047002211461320B0476420B6
:1011B000A047164B98476420A0470020144B98473F
:1011C0006420A047B9F80430B9F80020002108468F
:1011D000104CA047D9F808000F4B9847002108464B
:1011E0000E4B98470020BDE700800040D908400022
:1011F000002D3101AD194000AD094000450E400001
:10120000F90E40001D154000130A4000C10F4000B8
:10121000150F4000410F4000D50F4000FD0F40006A
:101220002D0940002DE9F04184B003900291019214
:1012300004AA42F8103D134601AA02A903A8224CB1
:10124000A047BDF80C00BDF80810009B01335B1AE5
:10125000019A0132121A9BB292B21C4CA0471C4B4D
:1012600098470399019D691A009D0135029BED1A6B
:1012700001FB0555174BA3FB05231B0A63B15C1E3D
:10128000DFF858804FF47077134E39464046B04728
:10129000013CB4F1FF3FF8D10E49A1FB0531090A29
:1012A00001EB8101A5EB811101EB41010B480A4BD8
:1012B00098474FF4F0734FF4A07200210846034C96
:1012C000A04704B0BDE8F081B10D4000410F4000DF
:1012D000090E4000CDCCCCCCB90E40007C0B402098
:1012E00010B584B003900291013A10440190013B83
:1012F000194404AB43F8101D01AA02A903A8134C1A
:10130000A047BDF80C00BDF80810009B01335B1A24
:10131000019A0132121A9BB292B20D4CA047039966
:10132000019A511A029A009B9A1A02FB01F202EBEF
:10133000420206992C20074B98474FF4F0734FF464
:10134000A07200210846A04704B010BDB10D4000B6
:10135000410F4000450E4000016370474264B1F107
:10136000C05F3AD013D8B1F1006F25D0B1F1805FE2
:101370000AD1036F13430367436F416F0B4023EAA6
:1013800002034367426070470029FBD17047B1F107
:10139000205F21D009D8B1F1005FF3D1036F13436F
:1013A0000367436F13434367ECE7B1F1405F13D02A
:1013B000B1F1605F10D0E5E710B4016F046FD34363
:1013C00021401C4619400167436F416F0B40234089
:1013D000436742605DF8044B7047036F016F0B4039
:1013E00023EA02030367436F13434367CAE7416479
:1013F00012F0010F0DD1016612F00A0F0BD001623D
:1014000012F0020F09D112F0080F08D0C0F88410B2
:1014100005E04166F0E74162F2E7C0F88010416103
:101420000160704710B4019C41644CB901664BB136
:1014300001654AB94163016101605DF8044B704781
:101440004166F4E74165F4E70163F4E770B582B003
:10145000054616461C46B1F1005F14D00AD9B1F119
:10146000405F24D0B1F1605F21D0B1F1205F17D08F
:1014700000201AE0B1F1805F05D0B1F1C05F02D069
:10148000B1F1006FF4D132462846114B984714F061
:10149000010F02D12E66012007E06E66012004E0F4
:1014A0001A4631460B4B9847012002B070BD04F03C
:1014B00001030093C4F38003B1F1605F14BF002205
:1014C000012231462846044CA0470120EDE700BF29
:1014D0005D134000EF1340002514400012F0100F80
:1014E00012D0C0F8B01012F0200F07D0C0F8D410FE
:1014F00012F0400F05D0C0F8C0107047C0F8D010EF
:10150000F6E7C0F8C4107047C0F8B4107047016423
:101510007047C06C7047806C70470000054B03EB50
:1015200050135B0200F01F00012202FA00F0186362
:10153000704700BF07072000054B03EB50135B0209
:1015400000F01F00012202FA00F05863704700BF4C
:101550000707200070B582B00D46464C04EB5014CE
:10156000640201F0F043B3F1005F59D00AD8B3F13F
:10157000805F2FD0B3F1C05F3FD0B3F1006F16D0C2
:10158000002012E0B3F1405F5DD0B3F1605F5AD04C
:10159000B3F1205FF4D100F01F0101262A4606FABC
:1015A00001F12046344B9847304602B070BD00F040
:1015B0001F000126864032464FF0006120462F4B27
:1015C000984715F0010F02D126660120EDE7666607
:1015D0000120EAE700F01F000126864032464FF066
:1015E00080512046254B984715F0010F02D1266601
:1015F0000120DAE766660120D7E700F01F00012628
:10160000864032464FF0C05120461C4B984715F09B
:10161000010F02D126660120C7E766660120C4E7F4
:1016200000F01F000126864032464FF00051204650
:10163000124B984715F0010F02D126660120B4E73E
:1016400066660120B1E705F0605200F01F01012637
:1016500005EA06030093C5F38003B2F1605F14BF8F
:101660000022012206FA01F12046054CA04730462F
:101670009BE700BF07072000EF1340005D13400009
:10168000251440002DE9F041044688460E4B98474A
:10169000054620460D4B9847054013D00C4C04F1ED
:1016A000600603E0B4420DD010345DB120684045BF
:1016B000F8D161682942F5D0E3689847636825EA64
:1016C0000305EFE7BDE8F081131540001715400052
:1016D0003C0F4020F8B5184C2668062E2AD84FF04B
:1016E000000C6446154F04E00134E4B2A446A6425F
:1016F00009D3A64625017D598D42F5D107EB041586
:101700006D689542F0D10D4D4FEA0E1E05EB0E04AB
:1017100045F80E106260A3600699E16001366645E7
:1017200005D011461A46064B98470020F8BD0249DD
:101730000E60F6E70120F8BDAC0F40203C0F4020C2
:10174000DD14400008B50A210148024B984708BD46
:10175000000E0E408516400008B50B210148024BD3
:10176000984708BD00100E408516400008B50C21B2
:101770000148024B984708BD00120E4085164000F4
:1017800008B510210148024B984708BD00140E40CF
:101790008516400008B511210148024B984708BD45
:1017A00000160E4085164000032811D0042812D0E0
:1017B00002280CBF4FF480710021084A136B23F4F8
:1017C00040730B431363936E13F0080FFBD0704705
:1017D0004FF44071F1E74FF40071EEE700060E4060
:1017E000174A136B23F0700318431063936E13F0C2
:1017F000080F0AD14FF4805311498A6E12F0080F76
:1018000003D1013BF9D1012070470D4A136B23F03E
:10181000030343F002031363936E13F0080F0AD11E
:101820004FF4805306498A6E12F0080F05D1013B30
:10183000F9D101207047002070470020704700BF99
:1018400000060E40A0B90E48036A090289B20D4A8B
:101850001A400D4B1343194301620246936E13F075
:10186000010FFBD0064A116A084B0B431362704705
:1018700003490B6A064A1A40064B13430B62704732
:1018800000060E40FCFFC8FF0100370000003701D2
:10189000FCFFC8FE02003701024B986E00F4803056
:1018A000704700BF00060E404FF00052014B9A6295
:1018B000704700BF00060E40024B986E00F0020019
:1018C000704700BF00060E4000F07F00054BC3F8D4
:1018D0000C01D3F80C2142F01022C3F80C21002097
:1018E000704700BF00060E4008B5074B984203D072
:1018F000064B984204D008BD1520054B984708BDFB
:101900002A20034B9847F6E70080004000800540FE
:10191000C9184000436823F47023436043680904F6
:1019200001F47021194341607047436823F07F43FD
:101930004360436843EA01614160704730B443F655
:101940009924056915F0020F03D1013CF9D101205A
:101950000CE0446814F0020F06D0120402F4702266
:1019600011430BB141F08071C160002030BC704761
:1019700032B900EB8100036B23F00103036370476E
:1019800000EB8100036B43F001030363704732B93E
:1019900000EB8100036B23F002030363704700EB4D
:1019A0008100036B43F0020303637047042A03D0F2
:1019B0006AB1082A16D0704700EB8100036B23F050
:1019C00008030363036B43F004030363704700EBF6
:1019D0008100036B23F008030363036B23F004030C
:1019E0000363704700EB8100036B43F0080303635C
:1019F000E1E700EB81010B6B23F0F0030B630B6B52
:101A00001A430A637047431E1944B1FBF0F0431EAA
:101A1000FE2B94BF00B24FF0FF3070477AB110B484
:101A2000144600EB81010B6B23F47F430B630A6BBD
:101A300042EA04220A6300205DF8044B70474FF02D
:101A4000FF30704710B400EB8101086B80B208636F
:101A50000C6B44EA036343EA02430B635DF8044BF7
:101A600070470000284B99424BD8A3F57A5399420E
:101A70002DD910B4254CA4FB0234A40B033C244BF9
:101A80000B449B00B2FBF3F2033AFF2C1DD900215B
:101A900001316408FF2C01D90629F9D9FF2A07D999
:101AA000062905D801315208FF2A01D90629F9D99A
:101AB00013029BB2090401F4E0210B43E4B2234377
:101AC000036100205DF8044B70470021E6E7490000
:101AD000B2FBF1F2033AFF2A11D900230133520875
:101AE000FF2A01D9062BF9D9110289B21B0403F48C
:101AF000E0230B43D2B21A43026100207047002357
:101B0000F2E70120704700BF801A0600F119760540
:101B10000012FD3F08B54FF0FF328262026A802258
:101B20000260026B0822026020220260042202602E
:101B30000A684968034B9847012814BF0020012018
:101B400008BD00BF651A4000CA68002A4CD070B4B6
:101B50008C68002646604B681B0203F4407343F414
:101B600080530D7C2D0405F4FE052B434360C660B5
:101B70004D685DB10B78012D02DD4E7846EA0323F6
:101B8000022D04DD897841EA032300E00023C360CD
:101B900001230360022512E0056013F0020F1BD041
:101BA000036B2370036A13F0010FFBD0036A00205C
:101BB00070BC7047036B04F8013B013AF2D0036A32
:101BC00013F4807F14D147F23051012AE4D013F08E
:101BD000020FEFD1002AE5D0036A13F4807F05D10C
:101BE0000139F2D10920E3E7012070470520DFE742
:101BF0000520DDE7CB68002B43D070B48C6800264D
:101C000046600A7C120402F4FE024D682D0205F4BF
:101C100040752A434260C6604D685DB10A78012D67
:101C200002DD4E7846EA0222022D04DD897841EA7F
:101C3000022200E00022C26004E014F8012B42639B
:101C4000013B0FD0026A12F4807F1ED112F0040F04
:101C5000F3D1026A12F4807F15D112F0040FECD197
:101C6000002BF6D1036A13F4807F11D113F0040F17
:101C7000F8D002230360036A13F0010FFBD00020A9
:101C800004E001207047052000E0052070BC70478B
:101C90000520FBE7436913F0020F02D0C161002069
:101CA000704701207047436913F0010F03D0836927
:101CB0000B70002070470120704710B40B01934255
:101CC00014D9C9004B0803EBC202B2FBF1F2D308EE
:101CD0005C1E4FF6FE718C4201D9012017E041686D
:101CE00041F4002141600CE0012010E0590801EBB3
:101CF000C202B2FBF3F2D3085C1E4FF6FE718C42B7
:101D0000F2D8120402F4E0221A43026200205DF8C5
:101D1000044B7047084BC0F8E43000234360436233
:101D2000836288230360242303604FF4807303607D
:101D30004FF40023036070470041535570B50546CA
:101D40000C4616460F4B984700220F4B1A60A4B161
:101D50003246216828460D4B9847024678B9636899
:101D6000A1680B4321690B43E1680B4306490B60F3
:101D700069680B436B60104670BD0122FBE70122CE
:101D8000F9E700BF151D4000B00F4020BB1C40000C
:101D9000402303607047102303607047436913F0CA
:101DA000020F04D0C1F30801C16100207047012077
:101DB0007047436913F0010F05D08369C3F308032B
:101DC0000B600020704701207047FEE700B583B02C
:101DD000254B264A9A4210D0254B234A9A420CD2D0
:101DE000013B9B1A23F00303043313441F4951F8AA
:101DF000040B42F8040B9A42F9D11E4B1E4A9A4238
:101E00000AD2013B9B1A23F003030433134400213D
:101E100042F8041B9342FBD1184A194B23F07F036D
:101E20009360EFF31083B3FA83F35B09019372B607
:101E3000BFF35F8F0022134B1A700199124A136887
:101E400043F470031360BFF34F8FBFF36F8F29B15B
:101E500001220C4B1A70BFF35F8F62B60B4B984791
:101E60000B4B9847FEE700BF00004020E8BA410056
:101E7000600B402078CA4020600B402000ED00E05D
:101E8000000040000A00402088ED00E0655D400051
:101E9000595440003B4B1B6B03F00303012B1DD037
:101EA00083B1022B36D0374B1B6B03F07003702BC2
:101EB0005FD0344B1A6B3449C2F302120B68D34023
:101EC0000B607047314B5B6913F0800F14BF4FF408
:101ED00000424FF4FA422C4B1A60E4E7294B1B6A8C
:101EE00013F0807F03D02A4A274B1A60DBE7294A88
:101EF000254B1A60234B1B6A03F07003102B05D08F
:101F0000202BD0D1224A204B1A60CCE7224A1E4B0C
:101F10001A60C8E71B4B1B6A13F0807F16D01C4A5F
:101F2000194B1A60174B1B6B03F00303022BBAD13A
:101F3000144A916A926A1448C1F30A41036801FB8A
:101F40000333D2B2B3FBF2F30360ACE7114A0E4B9A
:101F50001A600C4B1B6A03F07003102B05D0202B6A
:101F6000E0D10B4A084B1A60DCE70B4A064B1A60BB
:101F7000D8E7054A13680949A1FB03135B081360FE
:101F8000704700BF00060E400C00402010180E40A5
:101F9000001BB70000093D0000127A00ABAAAAAAF4
:101FA000164B984213D9164B984215D9154B9842A7
:101FB00016D9154B984217D9144B984218D9144B7F
:101FC000984294BF134A144A144B1A6070474FF05A
:101FD0008062124B1A607047114A104B1A607047AA
:101FE000104A0E4B1A6070470F4A0C4B1A6070472C
:101FF0004FF00422094B1A60704700BFBFF35E0127
:102000007FE7BD023FDB1C04FFCE7B05BFC2DA06C3
:102010007FB639080005000400060004000C0E40DD
:102020000001000400020004000300040A4B1B68C6
:1020300053B1094B1B681A180849914208DB104636
:10204000054A106018467047054A034B1A60F0E7CE
:102050004FF0FF30704700BFB40F4020FCFF452019
:1020600078EC40204FF0FF3070474FF400534B6046
:1020700000207047012070470020704700F10803DE
:1020800043604FF0FF328260C3600361002303604E
:10209000704700230361704743684B609A688A6009
:1020A0009A68516099600861036801330360704762
:1020B00030B40D68B5F1FF3F02D000F1080202E034
:1020C000026904E01A4653681C68A542FAD25368B4
:1020D0004B6099608A605160086103680133036056
:1020E00030BC7047036942688168916082684168CA
:1020F00051605A68904205D0002202611868013888
:102100001860704782685A60F6E700000D4B1B6844
:10211000B3F1FF3F0AD04FF0800372B683F311880A
:10212000BFF36F8FBFF34F8F62B6FEE74FF08003B0
:1021300072B683F31188BFF36F8FBFF34F8F62B610
:10214000FEE700BF1000402006480068006880F3EA
:10215000088862B661B6BFF34F8FBFF36F8F00DFA1
:1021600000BF000008ED00E0DFF80C00016841F45A
:10217000700101607047000088ED00E04FF080734F
:1021800040F8043C40F8081C054B40F80C3C40F873
:10219000202C6FF0020340F8243C4438704700BF05
:1021A0000D214000064B19680868B0E8F04F80F335
:1021B0000988BFF36F8F4FF0000080F311887047DC
:1021C000C8C74020704700BF4FF0800372B683F34A
:1021D0001188BFF36F8FBFF34F8F62B60B4A13683E
:1021E00001331360012B0FD1094B1B6813F0FF0F54
:1021F0000AD04FF0800372B683F31188BFF36F8F5C
:10220000BFF34F8F62B6FEE7704700BF100040205B
:1022100004ED00E00A4B1B6853B94FF0800372B61F
:1022200083F31188BFF36F8FBFF34F8F62B6FEE762
:10223000013B034A13600BB983F31188704700BF59
:1022400010004020EFF30980BFF36F8F154B1A6821
:102250001EF0100F08BF20ED108A20E9F04F10602B
:102260004DF8043D4FF0800072B680F31188BFF343
:102270004F8FBFF36F8F62B601F01AF94FF0000075
:1022800080F3118808BC19680868B0E8F04F1EF0A8
:10229000100F08BFB0EC108A80F30988BFF36F8F6E
:1022A000704700BFC8C74020704700BF08B5EFF3B4
:1022B00011834FF0800272B682F31188BFF36F8FE3
:1022C000BFF34F8F62B6054B984718B14FF080525D
:1022D000034B1A60002383F3118808BD1D314000B1
:1022E00004ED00E0034A044B1A600722043B1A6025
:1022F000704700BF7FA9030014E000E000B583B081
:10230000254B1A78D2B20192FF221A701B78DBB2E9
:102310008DF803309DF8033003F080031F4A1370DB
:1023200007221F4B1A609DF8033013F0800F10D066
:10233000062200E00A469DF803305B00DBB28DF810
:1023400003309DF80330511E13F0800FF2D1144B6F
:102350001A60134A13681B0203F4E0631360019BC5
:10236000DBB20D4A13700F4B1A6842F460021A6018
:102370001A6842F060421A600B4B984700220B4BE0
:102380001A600B4B98470B4A136843F040431360A5
:10239000094B9847094B984700E400E0B80F4020EC
:1023A000BC0F402020ED00E0E5224000100040205E
:1023B0006921400034EF00E0492140000D21400038
:1023C000EFF305830F2B11D9124A9B5CDBB2124A43
:1023D00012789A420AD94FF0800372B683F31188BB
:1023E000BFF36F8FBFF34F8F62B6FEE70B4B1B68D7
:1023F00003F4E0630A4A126893420AD94FF080035B
:1024000072B683F31188BFF36F8FBFF34F8F62B63D
:10241000FEE77047F0E300E0B80F40200CED00E06D
:10242000BC0F402038B5044610F0070F02D020F052
:1024300007040834114B9847114B1B6893B1114B9B
:102440001B681C44A34213D24BF2F77294420FD87C
:102450000B4A15681D440B4B1C600B4B98474DB144
:10246000284638BD094B23F00703054A1360E6E709
:10247000054B9847064B98470025F1E7013140008E
:10248000C00F4020C4C7402069324000CC0F40201C
:102490004F40400050B14FF0800372B683F3118873
:1024A000BFF36F8FBFF34F8F62B6FEE77047000038
:1024B00038B504461546026C5AB90368002B2ED174
:1024C00040681B4B984700236360A36B0133A363F1
:1024D00038BD6DB98068174B9847A368226C1344C8
:1024E000A360626893421CD32368A3600020ECE7DA
:1024F000C068104B9847236C5B42E2681A44E26064
:1025000021688A4202D262681344E360022D0AD134
:10251000A36B53B1A36B013BA3630020D5E700205D
:10252000D3E70020D1E70020CFE70020CDE700BFB0
:10253000B13840004D63400030B583B00190446D28
:1025400074B1A26BE36B9A4215D34FF0800372B65D
:1025500083F31188BFF36F8FBFF34F8F62B6FEE72F
:102560004FF0800372B683F31188BFF36F8FBFF310
:102570004F8F62B6FEE7A26B934203D80025284630
:1025800003B030BD0A4601A920460B4B98470546CB
:10259000A36CB3F1FF3F0AD1636A002BEFD004F1C3
:1025A0002400064B9847002818BF0125E7E7A36CD5
:1025B0000133A364E3E700BFB12440008536400047
:1025C000026C72B110B50346C4681444C46040681C
:1025D000844201D31868D8600846D968014B9847EF
:1025E00010BD70474D634000F8B50446224B984734
:1025F000A36C002B1BDD214D214F224E0BE0636AA3
:10260000ABB104F12400B04778B9A36C013BA364DB
:10261000A36C002B0BDD636D002BF0D00021204656
:10262000A8470128F1D1B847EFE7B847EDE74FF0E9
:10263000FF33A364144B98470F4B9847636C002BF0
:1026400014DD236993B104F110060E4D0C4F07E021
:10265000636C013B6364636C002B07DD23692BB162
:102660003046A8470028F3D0B847F1E74FF0FF33D2
:102670006364054B9847F8BDC921400039254000E7
:10268000E1374000853640001522400038B508B3D8
:1026900004460D461D4B98472268216CE36B03FBF3
:1026A00001F3D01860600020A063A2605B1A13449D
:1026B000E3604FF0FF336364A364FDB923692BB17A
:1026C00004F11000124B984701280ED0114B984787
:1026D000012038BD4FF0800372B683F31188BFF339
:1026E0006F8FBFF34F8F62B6FEE74FF080520A4BF9
:1026F0001A60BFF34F8FBFF36F8FE7E704F110004D
:10270000064DA84704F12400A847DFE7C92140008F
:10271000853640001522400004ED00E07D20400099
:10272000F8B550B94FF0800372B683F31188BFF348
:102730006F8FBFF34F8F62B6FEE7064617460D4612
:1027400089B101FB00F05930124B98470446E8B9B3
:102750004FF0800372B683F31188BFF36F8FBFF31E
:102760004F8F62B6FEE758200A4B98470446002870
:10277000EED02060E663256401212046064B984791
:1027800084F85070002363652046F8BD00F15803BB
:102790000360EFE7252440008D2640002DE9F04F2F
:1027A00085B00192B8B1044601B3022B2CD01D466E
:1027B0008846664B9847002834D1019B002B38D0BF
:1027C0004FF0800372B683F31188BFF36F8FBFF3AE
:1027D0004F8F62B6FEE74FF0800372B683F3118825
:1027E000BFF36F8FBFF34F8F62B6FEE7026C002A14
:1027F000DBD04FF0800372B683F31188BFF36F8F85
:10280000BFF34F8F62B6FEE7E26B012ACFD04FF0E5
:10281000800372B683F31188BFF36F8FBFF34F8FBE
:1028200062B6FEE700274A4EDFF850A1DFF82C9190
:1028300042E00027F7E72A4641462046454B9847A5
:10284000636D9BB129462046434B9847012807D129
:102850004FF08052414B1A60BFF34F8FBFF36F8F21
:102860003F4B9847012005B0BDE8F08F636A73B114
:1028700004F124003B4B98470128F1D14FF08052DE
:10288000364B1A60BFF34F8FBFF36F8FE8E7002816
:10289000E6D04FF08052314B1A60BFF34F8FBFF339
:1028A0006F8FDDE72E4B98470020DCE720462E4B4C
:1028B00098472E4B98470127B047A26BE36B9A428B
:1028C000B9D3022DB7D0019B002BEBD00FB902A8D2
:1028D000D047234B9847264B9847B047636CB3F1DA
:1028E000FF3F01D100236364A36CB3F1FF3F01D12B
:1028F0000023A3641A4B984701A902A81D4B9847CF
:10290000E0B9B047D4F838B0E76B154B9847BB45F2
:10291000CCD1019904F11000174B98472046124B77
:102920009847124B98470028C5D14FF08053C9F8FB
:102930000030BFF34F8FBFF36F8FBCE720460A4BC9
:1029400098470A4B984700208DE700BFED374000BD
:10295000C9214000B12440003925400004ED00E0C9
:102960001522400085364000E925400069324000CC
:10297000013140004D374000813540001D37400097
:10298000002836D02DE9F041044600293CD0022B26
:1029900048D01E4615468846354B9847EFF31187B9
:1029A0004FF0800372B683F31188BFF36F8FBFF3CC
:1029B0004F8F62B6A26BE36B9A4201D3022E4FD1C6
:1029C0003246414620462B4B9847A36CB3F1FF3F5C
:1029D00041D1636D002B33D031462046264B9847BA
:1029E000002D3FD001283DD1286087F31188BDE834
:1029F000F0814FF0800372B683F31188BFF36F8FBD
:102A0000BFF34F8F62B6FEE7006C0028BFD04FF0D7
:102A1000800372B683F31188BFF36F8FBFF34F8FBC
:102A200062B6FEE7E06B0128B3D04FF0800372B6C8
:102A300083F31188BFF36F8FBFF34F8F62B6FEE74A
:102A4000636A8BB104F124000C4B984775B168B1EF
:102A500001202860C9E7A36C0133A3640120C4E707
:102A60000020C2E70120C0E70120BEE70120BCE74B
:102A7000C1234000B1244000392540008536400084
:102A800070B170B50446036CABB14FF0800372B601
:102A900083F31188BFF36F8FBFF34F8F62B6FEE7EA
:102AA0004FF0800372B683F31188BFF36F8FBFF3CB
:102AB0004F8F62B6FEE7036833B30D46254B984748
:102AC000EFF311864FF0800372B683F31188BFF3E2
:102AD0006F8FBFF34F8F62B6A26BE36B9A4231D216
:102AE000A36B0133A363A36CB3F1FF3F25D1636DE7
:102AF000C3B100212046184B98472DB3012823D19C
:102B0000286086F3118870BD4368002BD5D04FF044
:102B1000800372B683F31188BFF36F8FBFF34F8FBB
:102B200062B6FEE7636A8BB104F124000B4B984751
:102B300075B168B101202860E3E7A36C0133A36499
:102B40000120DEE70020DCE70120DAE70120D8E7FA
:102B50000120D6E7C12340003925400085364000DA
:102B60002DE9F04784B0019298B10446E1B198464E
:102B70000F46614B984728BB019B53B34FF080032E
:102B800072B683F31188BFF36F8FBFF34F8F62B6B6
:102B9000FEE74FF0800372B683F31188BFF36F8FA7
:102BA000BFF34F8F62B6FEE7026C002ADFD04FF012
:102BB000800372B683F31188BFF36F8FBFF34F8F1B
:102BC00062B6FEE700264D4DDFF860A1DFF83C91CC
:102BD0004BE00026F7E7E56839462046484B984722
:102BE000B8F1000F1DD1A36B013BA363236813B998
:102BF000444B9847606023696BB104F11000424B6D
:102C00009847012807D14FF08052404B1A60BFF31C
:102C10004F8FBFF36F8F3E4B9847012004B0BDE844
:102C2000F087E560636A002BF5D004F12400364B91
:102C300098470028EFD04FF08052344B1A60BFF312
:102C40004F8FBFF36F8FE6E7314B98470020E5E7E2
:102C5000A84760682F4B98472D4B984730E0204697
:102C60002D4B98472D4B98470126A847A36B002B67
:102C7000B1D1019B002BE7D00EB902A8D047244B5D
:102C80009847274B9847A847636CB3F1FF3F01D1A2
:102C900000236364A36CB3F1FF3F01D10023A3645D
:102CA0001B4B984701A902A81E4B9847E8B9A847B3
:102CB000A66B174B9847002ED1D12368002BC7D0A5
:102CC000019904F12400184B98472046124B98476D
:102CD000124B98470028C7D14FF08053C9F80030F5
:102CE000BFF34F8FBFF36F8FBEE720460A4B984765
:102CF0000A4B9847002091E7ED374000C92140007A
:102D0000C12540006D3940008536400004ED00E0EB
:102D1000152240000D384000E9254000693240008E
:102D2000013140004D374000813540001D374000E3
:102D300010B40B4B1B6853B10123094C54F83320DA
:102D400032B10133082BF9D15DF8044B70470023F1
:102D5000034A42F8331002EBC3035860F4E700BFA4
:102D6000F8C9402070B504460D4616460F4B9847EB
:102D7000636CB3F1FF3F0BD0A36CB3F1FF3F0AD0FC
:102D80000B4B9847A36B4BB120460A4B984770BD3D
:102D900000236364F0E70023A364F1E73246294689
:102DA00004F12400044B9847EEE700BFC92140001E
:102DB00015224000E925400005364000084B1B68FD
:102DC0001B683BB1064B1B68DB68DB685A68054B28
:102DD0001A6070474FF0FF32024B1A60704700BF15
:102DE000CCC7402078C8402010B50F4B1B685860F6
:102DF0000E4B1B6898420ED304460D4B18680A4BC5
:102E0000196804310B4B98470B4B1B689C4201D24D
:102E1000094B1C6010BD094B1868034B196804313D
:102E2000044B984710BD00BFC8C74020C0C8402011
:102E3000CCC74020B120400078C84020D0C74020F7
:102E40002DE9F04F83B00C9DDDF834A00E9E60B1EB
:102E5000042D15D94FF0800372B683F31188BFF3A8
:102E60006F8FBFF34F8F62B6FEE74FF0800372B6ED
:102E700083F31188BFF36F8FBFF34F8F62B6FEE706
:102E80000190984691460F4636B99000624B98479C
:102E90000646002800F09E8058205F4B9847044665
:102EA000002800F0948006634FEA8902A52130468D
:102EB0005A4B98476FF040464E44236B03EB860312
:102EC00023F007063B7884F834303B78002B40F041
:102ED0008480002784F83D70E562A564E76404F10E
:102EE00004094846DFF884B1D84704F11800D847F0
:102EF0002461C5F10503A3616462276584F85470F9
:102F0000424601993046464B98472060BAF1000F7F
:102F100001D0CAF80040434B9847434A1368013335
:102F20001360424B1B68002B66D1404B1C6013683A
:102F3000012B21D13E4F38463E4EB04707F11400D9
:102F4000B04707F12800B04707F13C00B04707F150
:102F50005000B047DFF818814046B047364F38463A
:102F6000B0473648B0473648B0473648B047364B8A
:102F7000C3F80080354B1F60354A13680133136076
:102F80002364E06A334A1168012383400B431360D2
:102F900000EB80004946264B03EB80002E4B984700
:102FA0002E4B98472E4B1B68002B31D01F4B1B68B4
:102FB000DB6A9D422ED94FF080522A4B1A60BFF334
:102FC0004F8FBFF36F8F012003B0BDE8F08F304605
:102FD000254B98474FF0FF30F6E73B4604F13402AB
:102FE0000937597802F8011F13F8011F00293FF42F
:102FF00070AFBB42F5D16CE7194B1B68002BBBD1FE
:103000000A4B1B68DB6A9D42B6D3084B1C60B3E7D2
:103010000120D9E70120D7E7252440008164400042
:103020007D214000C921400038C84020C8C7402049
:10303000D4C740207D20400064C8402080C8402084
:10304000ACC8402098C84020CCC74020D0C7402002
:1030500044C840204CC84020992040001522400020
:1030600094C8402004ED00E09524400093204000E7
:1030700050C8402010B584B00023039302930193FD
:103080000093822216491748174CA04701280BD0FD
:1030900020BB4FF0800372B683F31188BFF36F8FAC
:1030A000BFF34F8F62B6FEE7104B98470128EFD170
:1030B0004FF0800372B683F31188BFF36F8FBFF3B5
:1030C0004F8F62B64FF0FF32094B1A600122094B55
:1030D0001A600022084B1A60084B984704B010BDD4
:1030E000388D400019344000412E4000593A4000CC
:1030F00078C8402094C84020C0C84020FD2240002D
:10310000024A136801331360704700BF40C8402073
:10311000014B1868704700BFC0C840202DE9F04738
:10312000424B1B68002B78D1414B1A6801321A6060
:103130001E68D6B93F4B1B681B6853B14FF0800324
:1031400072B683F31188BFF36F8FBFF34F8F62B6F0
:10315000FEE7384A1168384B186810601960374A22
:10316000136801331360364B9847364B1B689E42F9
:1031700018D20024344B1B68DB6A03EB8303334A09
:1031800052F82330022B28BF0124314B1B680BB9A6
:10319000304B9847304B1B68002B0CBF204601205A
:1031A000BDE8F0870024DFF88C90DFF8B8802B4F63
:1031B0001FE04FF0FF32234B1A60DBE7214A136018
:1031C000D8E705F11800C047E86A3A680123834050
:1031D00013433B6000EB800051461C4B03EB800027
:1031E0001F4B9847184B1B68EA6ADB6A9A4228BF54
:1031F0000124D9F800301B68002BDAD0D9F8003050
:10320000DB68DD686B689E42D8D305F1040A50463E
:10321000C047AB6A002BD4D1D6E70D4A13680133FF
:1032200013600C4B98470024B4E700BF40C840200F
:10323000C0C84020CCC74020D0C740207CC8402018
:10324000BD2D400078C84020C8C74020D4C74020CA
:103250003CC840204D404000C4C840204CC84020DD
:1032600099204000E52040002DE9F843384B1B68C9
:1032700053B94FF0800372B683F31188BFF36F8F99
:10328000BFF34F8F62B6FEE7324B9847304B1A6858
:10329000013A1A601B68002B55D12F4B1B68002B7D
:1032A00032D100242D4B98472046BDE8F883FB68B7
:1032B000DC6804F11800B04704F104084046B04748
:1032C000E06A2A680123834013432B6000EB8000EF
:1032D000414609EB8000224B9847224B1B68E26A6B
:1032E000DB6A9A420CD23B68002BE0D11E4B1B6874
:1032F000DBB11D4B1B68C3B11C4E1D4D1A4C0EE0BB
:1033000001221B4B1A60EEE71A4F1B4E1B4DDFF8D4
:103310007490E8E72368013B236023682BB1B04732
:103320000028F7D001232B60F4E7114B1B68012B19
:103330000BD14FF08052124B1A60BFF34F8FBFF387
:103340006F8F0124AEE70024ACE70024AAE700BF9A
:1033500040C84020C921400038C840201522400004
:1033600099204000C8C740203CC840201D31400083
:10337000C4C8402080C84020E52040004CC8402000
:1033800004ED00E0D4C7402010B5002829D0044641
:10339000184B1B6853B14FF0800372B683F311884A
:1033A000BFF36F8FBFF34F8F62B6FEE7124B9847A4
:1033B000124B1B681C44124B18680430114B984781
:1033C00048B90F4B1A6810490B68D06A0122824035
:1033D00023EA02030B6020460C4B98470C4B98479E
:1033E00038B94FF080520B4B1A60BFF34F8FBFF3C9
:1033F0006F8F10BD40C8402001314000C0C8402040
:10340000C8C74020E52040004CC84020E92D4000BE
:103410006932400004ED00E080B5DFF88880194E85
:10342000DFF884902AE0184B1B68012B1ED82B680C
:10343000002BF8D0C0473468B847002CF7D0134BA6
:103440009847F368DC68201D114B9847114A1368B0
:10345000013B13602B68013B2B600F4B9847206B9F
:10346000DFF848A0D0472046D047E0E74FF0805330
:10347000C9F80030BFF34F8FBFF36F8F074D084F70
:10348000D5E700BFACC84020D4C74020C9214000C8
:10349000E520400038C840201522400048C84020A0
:1034A000693240000131400004ED00E09524400005
:1034B0002D4B1B68002B2CD110B500222B4B1A6012
:1034C0002B4B1B681B6B1A68B2F1A53F03D15A68DE
:1034D000B2F1A53F21D0264B186819683431254B2D
:1034E0009847254B1B68B3FA83F3DBB2C3F11F0384
:1034F00003EB8301214A52F82120BAB94FF080032F
:1035000072B683F31188BFF36F8FBFF34F8F62B62C
:10351000FEE70122154B1A6070479A68B2F1A53F89
:10352000D9D1DB68B3F1A53FD5D1DAE7134A9900C9
:10353000C81802EB8000446864684460194402467D
:103540000832944209D003EB83030C4A02EB830355
:103550005B68DA68064B1A6010BD6068074A02EBC8
:1035600081025060EFE700BF40C84020C4C840203F
:10357000C8C74020354040004CC84020D4C7402038
:1035800038B5E0B10C46174D29681831164B9847ED
:1035900028680430154B984740B92A6814490B68CD
:1035A000D06A0122824023EA02030B60B4F1FF3F9C
:1035B00010D0104B186820440F4B984738BD4FF07F
:1035C000800372B683F31188BFF36F8FBFF34F8F01
:1035D00062B6FEE7034B196804310848084B984768
:1035E00038BD00BFC8C74020B1204000E5204000E2
:1035F0004CC84020C0C84020E92D400098C8402059
:1036000099204000E8B170B515460C46164E316859
:103610001831164B984730680430154B984740B91D
:10362000326814490B68D06A0122824023EA0203FF
:103630000B60012D10D0104B186820440F4B984799
:1036400070BD4FF0800372B683F31188BFF36F8FA4
:10365000BFF34F8F62B6FEE7034B19680431084889
:10366000024B984770BD00BFC8C74020992040005A
:10367000E52040004CC84020C0C84020E92D400053
:1036800098C8402038B5C368DC6824B304F1180535
:1036900028461A4B98471A4B1B683BBB251D2846EA
:1036A000164B9847E06A174A1168012383400B4381
:1036B000136000EB80002946134B03EB8000134B93
:1036C0009847134B1B68E26ADB6A9A4213D90120C0
:1036D000104B186038BD4FF0800372B683F3118829
:1036E000BFF36F8FBFF34F8F62B6FEE729460A48DC
:1036F000064B9847E5E7002038BD00BFE5204000B5
:1037000040C840204CC84020D4C7402099204000E9
:10371000C8C74020C4C8402080C8402030B1094AF2
:1037200012680260084A1268426070474FF08003D6
:1037300072B683F31188BFF36F8FBFF34F8F62B6FA
:10374000FEE700BF7CC84020C0C8402038B5C0B1EB
:10375000044609B30D461D4B98471D4B1A682B684C
:10376000B3F1FF3F2ED01B4909682068884202D080
:1037700061688A4228D26168501A834217D80124AE
:103780001CE04FF0800372B683F31188BFF36F8F94
:10379000BFF34F8F62B6FEE74FF0800372B683F33C
:1037A0001188BFF36F8FBFF34F8F62B6FEE79B1A8E
:1037B0000B442B602046084B98470024074B984742
:1037C000204638BD0024F9E70124F7E7C92140006D
:1037D000C0C840207CC840201D3740001522400052
:1037E0000122014B1A607047C4C84020054B1B687A
:1037F00033B1054B1B68002B0CBF02200020704723
:103800000120704794C8402040C84020002844D080
:1038100038B50446C26A21490968C96A8A4214D285
:103820008169002905DB1D490968C96AC1F10501E3
:10383000816102EB82021A4901EB820261699142C5
:1038400004D0164A1268D26AE26238BD251D2846A5
:10385000144B984770B9E36A03EB8301104A52F89E
:1038600021203AB910480268012101FA03F322EA43
:1038700003030360094B1B68D86AE0620A4A1168B7
:10388000012383400B43136000EB80002946044B67
:1038900003EB8000054B984738BD7047C8C74020F0
:1038A000D4C74020E52040004CC84020992040006B
:1038B00000284DD038B50446274A126890420AD0F5
:1038C0004FF0800372B683F31188BFF36F8FBFF39D
:1038D0004F8F62B6FEE7C26C52B94FF0800372B6EA
:1038E00083F31188BFF36F8FBFF34F8F62B6FEE78C
:1038F000013AC264C06AA16C88422BD052BB251D1C
:103900002846164B984768B9E16A01EB8102144BCF
:1039100053F8223033B91348036801228A4023EA5E
:1039200002030360A06CE062C0F10503A3610D4ACD
:103930001168012404FA00F30B43136000EB8000CC
:103940002946074B03EB8000074B9847204638BDBC
:1039500000207047002038BDC8C74020E520400047
:10396000D4C740204CC8402099204000054B1B681C
:1039700023B1044B1A68D36C0133D364014B18682C
:10398000704700BFC8C7402008B541600061914240
:103990000CD8D21A83699A4201D3012008BD011DB7
:1039A000094B1868094B9847002008BD9A4203D27A
:1039B000994201D3012008BD011D054B1868034B36
:1039C0009847002008BD00BFCCC84020B12040006F
:1039D000C8C8402070B5154B9847154B1B6813B1EC
:1039E000144B984770BD144D2846144EB047144CE4
:1039F0002046B047134B1D60134B1C600022102162
:103A00000520124B98470A4B186018B11049114B0A
:103A10009847E5E74FF0800372B683F31188BFF350
:103A20006F8FBFF34F8F62B6FEE700BFC921400022
:103A3000FCC8402015224000D0C840207D20400016
:103A4000E4C84020C8C84020CCC8402021274000FE
:103A5000408D4000312D400010B584B00F4B984789
:103A60000F4B1B6873B1002303930293019304224D
:103A700000924FF482720B490B480C4CA04708B1DE
:103A800004B010BD4FF0800372B683F31188BFF30A
:103A90006F8FBFF34F8F62B6FEE700BFD53940008E
:103AA000FCC84020488D4000D93B4000412E4000DA
:103AB000D8B130B585B015460446154A106820B314
:103AC0001A46009101950294052919DC114B98477B
:103AD00002284FF000030CBF089A1A4669460C48AA
:103AE00000680D4CA04705B030BD4FF0800372B6A2
:103AF00083F31188BFF36F8FBFF34F8F62B6FEE77A
:103B000000236946054CA047EDE70020EBE700BF26
:103B1000FCC84020ED3740009D274000812940002F
:103B20002DE9F04782B08046244B98470746244B46
:103B30001B6898421BD30023C8F80030204B1F603D
:103B4000384602B0BDE8F087002100910B4652468E
:103B500020461C4CA04760B94FF0800372B683F337
:103B60001188BFF36F8FBFF34F8F62B6FEE7164D1C
:103B7000164E2B681A68C2B1DB68D3F800A0DC6867
:103B800004F104094846B047636A20469847E36950
:103B9000012BEED1A36953449A45D5D263602461C9
:103BA000494628680A4B9847E3E70A4A10680649DD
:103BB000086013600123C8F80030BFE711314000EE
:103BC000F8C84020B13A4000C8C84020E520400075
:103BD000B1204000CCC840202DE9F04788B0754E98
:103BE000754FDFF8FC91DFF8FC8133681A68002A12
:103BF00000F0CE80DB681C68B84704A86F4B98477C
:103C00000546049B002B44D1A04212D20022611B26
:103C10006B4B18686B4B98476B4B984700283AD111
:103C20004FF08053C9F80030BFF34F8FBFF36F8F51
:103C300031E0654B98473368DB68D3F80CA00AF194
:103C40000400C047DAF81C30012B04D0DAF8243025
:103C5000504698471FE0DAF8181023462A462144B8
:103C600050465A4DA8470128F0D1002100910B463B
:103C700022465046564CA0470028E7D14FF080031B
:103C800072B683F31188BFF36F8FBFF34F8F62B6A5
:103C9000FEE74D4B98474A4D4E4C06E00799069873
:103CA000059B9847049B002B09DA00231A4604A9B8
:103CB0002868A047002898D0049B002BEEDBDDF895
:103CC00018A0DAF8143013B10AF10400C04703A8B1
:103CD0003A4B9847049B092BE7D801A252F823F0EE
:103CE000093D4000093D4000093D4000AB3C40001B
:103CF0005D3D4000893D4000093D4000093D4000D8
:103D0000AB3C40005D3D4000059CDAF818102346AE
:103D10000246214450462D4CA0470128BCD1DAF878
:103D2000243050469847DAF81C30012BB4D1DAF829
:103D30001820002100910B46059802445046244C5F
:103D4000A0470028A8D14FF0800372B683F31188F2
:103D5000BFF36F8FBFF34F8F62B6FEE70599CAF8C6
:103D6000181031B10346024601445046174CA04793
:103D700092E74FF0800372B683F31188BFF36F8F21
:103D8000BFF34F8F62B6FEE75046134B984783E769
:103D9000B84704A8094B98470546049B002B7FF4BD
:103DA00078AF0E4B1B681A68B2FA82F252090024EF
:103DB0002DE700BFC8C8402001314000213B400032
:103DC000FCC84020652D4000693240008939400020
:103DD000B13A4000612B400095244000CCC84020FF
:103DE00004ED00E0E5204000F8B500221C4B1A600D
:103DF0001C4B1B78DBB2012B25D01A4B1B78DBB296
:103E0000022B23D0184A136801331360174B1B6829
:103E1000C3B1174B1C6801341C60164D0EA3D3E9C7
:103E200000231549D1E90001A84706460F46204660
:103E3000124B984702460B4630463946A847104B6E
:103E4000C3E90001F8BD074B1A70DBE70322054BFD
:103E50001A70D7E7AFF30080182D4454FB211940A6
:103E60002CC9402012C9402024C9402030C940201C
:103E700034C9402041594000A801402075584000F5
:103E800008C94020F0B583B005460C4600230193D5
:103E90002A4B984213D02A4B984218D0294B98426B
:103EA0001DD0294B9D4222D0284B9D4227D0284B24
:103EB0009D422ED0274B9D4235D003B0F0BD1F460A
:103EC000254E21463846B0470028FAD1E9E71F467B
:103ED000214E21463846B0470028FAD1E4E71F4674
:103EE0001D4E21463846B0470028FAD1DFE71F466D
:103EF000194E21463846B0470028FAD1DAE71E4667
:103F0000164D01A93046A8470028FAD1019B23701D
:103F1000D3E71E46114D01A93046A8470028FAD123
:103F2000019B2370C9E71E460C4D01A93046A847E6
:103F30000028FAD1019B2370BFE700BF00080E40A4
:103F4000000A0E40001A0E40001C0E4000400240C5
:103F50000080024000C00240A71C4000B31D40008A
:103F600070B50C462A4B984213D02A4B984219D070
:103F7000294B98421FD0294B984225D0284B984274
:103F80002BD0284B984231D0274B984237D0002075
:103F900070BD1E46254D21463046A8470028FAD15F
:103FA000012070BD1E46214D21463046A8470028FD
:103FB000FAD1012070BD1E461C4D21463046A8474F
:103FC0000028FAD1012070BD1E46184D214630460A
:103FD000A8470028FAD1012070BD1E46144D214685
:103FE0003046A8470028FAD1012070BD1E46104D6A
:103FF00021463046A8470028FAD1012070BD1E4650
:104000000B4D21463046A8470028FAD1012070BD4B
:1040100000080E40000A0E40001A0E40001C0E4020
:10402000004002400080024000C00240951C400059
:104030009D1D400008B50A4601460248024B9847BC
:10404000FEE700BF3CB94100B55D400070474FF04E
:10405000800372B683F31188BFF36F8FBFF34F8F66
:1040600062B6FEE710B5022803D078B1012819D056
:1040700010BD4FF47C40124B984740F2DF1340F2E2
:104080003F12002108460F4CA04710BD0E480C4BB4
:10409000984740F2DF1340F23F1200210846094CD6
:1040A000A04710BD4FF47C00054B984740F2DF134A
:1040B00040F23F1200210846024CA047D8E700BF5B
:1040C000D50F400025124000FCFCFC0010B506484E
:1040D000064B984740F2DF1340F23F124FF4D7717E
:1040E0000020034CA04710BDFCFCFC00D50F400095
:1040F000251240002DE9F04782B01F46DDF82880E8
:104100000B780BB30546164618460C46DFF8409070
:1041100003E014F8013F1846B3B16A7A9A42F8D323
:104120002B7AC01A6B6803EBC00ADAF804108B68AC
:104130004A680968009139463046C847DAF80430C1
:104140005B6843441E44E4E702B0BDE8F08700BF6B
:10415000E112400084B02DE9F04182B008AC84E85F
:104160000F000546DDF824800C9E0D9F0F9C9DF8E6
:10417000383053BB58480B9B1840584B9847680839
:104180004FEA5801CB198219791A301A544DA847B1
:1041900054B3012C32D0022C3AD0032C42D0042C40
:1041A0004AD0052C52D0062C5AD0072C62D0082CAD
:1041B0006AD0092C72D00A2C7AD00B2C00F08280A5
:1041C00002B0BDE8F04104B0704743480A9B184074
:1041D000424B984768084FEA5801CB198219791A5F
:1041E000301A3F4DA847D3E73E4A5369126901216F
:1041F00000913D493D483E4CA047E1E73D4A5369A7
:104200001269012100913C493848394CA047D7E751
:104210003A4A536912690121009139493348344CB3
:10422000A047CDE7374A5369126901210091364909
:104230002E482F4CA047C3E7344A53691269012125
:104240000091334929482A4CA047B9E7314A5369BC
:1042500012690121009130492448254CA047AFE75D
:104260002E4A53691269012100912D491F48204CA3
:10427000A047A5E72B4A53691269012100912A49F9
:104280001A481B4CA0479BE7284A53691269012131
:10429000009127491548164CA04791E7254A5369D4
:1042A00012690121009124491048114CA04787E769
:1042B000224A536912690121009121490B480C4C93
:1042C000A0477DE71D4B5B690122009232221D4908
:1042D0000648074CA04773E7FCFCFC00D50F4000E4
:1042E000251240001400402044964000508D4000AC
:1042F000F5404000340040204896400054004020E3
:104300004C9640007400402050964000940040209D
:1043100054964000B400402058964000D4004020FD
:104320005C964000F400402060964000140140205C
:10433000649640003401402068964000740140209B
:104340006C964000709640002DE9F04784B0054619
:10435000894690464FF0000A5446154F154E08E026
:104360000134E4B24FF0010A2846B047092C1BD8AB
:10437000D0B101A92846B8470028F5D1BAF1000FFD
:10438000EED1BDF8083003EB8303C3F39313C3F5F9
:10439000A073C9F80030BDF80630C3EB0313C3F3B4
:1043A000D313C8F80030DBE704B0BDE8F08700BFE6
:1043B000F50740008507400080B58AB002A8134B7E
:1043C0009847134D134EDFF85880134C0CE0002231
:1043D000114602A8B0473220A04702A8A8470028EB
:1043E000F5D14FF49670A04702A8A8470028F8D04E
:1043F00001AA694602A8B04700231A466946D8F8C0
:104400000000064FB847C820A047E6E791024000E9
:104410008507400049434000893340009D27400004
:104420004CCA402030B583B01B481C4B984704460B
:104430001B4B1B781BB11B4A1368013313601A4ACC
:1044400013680133136014F0040F12D114F0020F3B
:104450001CD1114D01212846144CA04708212846A3
:10446000A04710212846A04720212846A04703B096
:1044700030BD02A9002341F8043D0D4B18680D4BD7
:10448000984704210448094B9847DFE70221024876
:10449000064B9847DDE700BF60180E4085024000DC
:1044A00010C9402028C940202CC940208902400062
:1044B00038CA4020812A400008B50548054B984776
:1044C00010F0010F02D00122034B1A7008BD00BF8B
:1044D00030180E408D02400011C9402084B070B4E5
:1044E00003AC84E80F00079E08990B9D0C9A049B6F
:1044F0005B08CC1A94420CD80B4493420DD340086D
:10450000331AAB420BD83044A84234BF00200120FC
:1045100000E0002070BC04B070470020FAE70020E3
:10452000F8E700002DE9F04F89B0002208210A20A9
:10453000974B9847974B186097484FF4A0730360C8
:104540004FF4F0734360954B8360C360944B98477E
:104550000020944B9847944C04F110030FCB8DE846
:104560000F0094E80F00914CA047914D05F1100306
:104570000FCB8DE80F0095E80F00A0478D4D05F19A
:1045800010030FCB8DE80F0095E80F00A0478A4D70
:1045900005F110030FCB8DE80F0095E80F00A04741
:1045A000864D05F110030FCB8DE80F0095E80F0045
:1045B000A047834D05F110030FCB8DE80F0095E860
:1045C0000F00A0477F4D05F110030FCB8DE80F00C2
:1045D00095E80F00A0477C4D05F110030FCB8DE847
:1045E0000F0095E80F00A047784D05F110030FCBA1
:1045F0008DE80F0095E80F00A047754D05F11003F9
:104600000FCB8DE80F0095E80F00A047714D05F125
:1046100010030FCB8DE80F0095E80F00A0476E4DFB
:1046200005F110030FCB8DE80F0095E80F00A047B0
:104630006A4FDFF8C4815C4C04F110055C4B03F158
:10464000100B31E24FF47A70C0470020554B984769
:1046500095E80F008DE80F0094E80F00DFF84C910B
:10466000C8479BE80F008DE80F00514B0FCBC847A0
:10467000DFF840E10EF110030FCB8DE80F009EE84C
:104680000F00C847DFF830E10EF110030FCB8DE8C3
:104690000F009EE80F00C847DFF820E10EF110037D
:1046A0000FCB8DE80F009EE80F00C847DFF810E140
:1046B0000EF110030FCB8DE80F009EE80F00C847E6
:1046C000DFF800E10EF110030FCB8DE80F009EE83C
:1046D0000F00C847DFF8F0E00EF110030FCB8DE8B4
:1046E0000F009EE80F00C847DFF8E0E00EF110036E
:1046F0000FCB8DE80F009EE80F00C847DFF8D0E031
:104700000EF110030FCB8DE80F009EE80F00C84795
:10471000DFF8C0E00EF110030FCB8DE80F009EE82C
:104720000F00C847DFF8B0E00EF110030FCB8DE8A3
:104730000F009EE80F00C84700233B70B9E1284AEC
:104740000023136053609360D360264A1360EFE147
:1047500000934FF4E173822223492448DFF89C90B0
:10476000C847A1E1012300934FF4E173822220495D
:104770001E48DFF88890C84796E1012300934FF464
:10478000E17382221B491948DFF87090C8478BE11A
:10479000212740004CCA40203CCA4020FCFCFC00C1
:1047A0006110400065404000140040205541400029
:1047B00034004020540040207400402094004020E9
:1047C000B4004020D4004020F400402014014020D8
:1047D00034014020740140205401402010C9402081
:1047E00014C9402000C940206C964000508D400004
:1047F0002CB9410030B9410089334000F5404000F8
:1048000004AB08AA12E9030083E803009BE80F0049
:104810008DE80F007C4B0FCBDFF80092C8470028D3
:1048200040F01281DFF8F8E104AB08AA12E90300B6
:1048300083E803000EF110030FCB8DE80F009EE814
:104840000F00DFF8D891C847002840F0BF81DFF89B
:10485000D4E104AB08AA12E9030083E803000EF1D7
:1048600010030FCB8DE80F009EE80F00DFF8AC912E
:10487000C847002840F01182DFF8ACE104AB08AA79
:1048800012E9030083E803000EF110030FCB8DE85B
:104890000F009EE80F00DFF88491C847002840F021
:1048A0008482DFF888E104AB08AA12E9030083E8F8
:1048B00003000EF110030FCB8DE80F009EE80F00F0
:1048C000DFF85891C847002840F0D682DFF860E151
:1048D00004AB08AA12E9030083E803000EF11003F9
:1048E0000FCB8DE80F009EE80F00DFF83091C8472E
:1048F000002840F02883DFF83CE104AB08AA12E965
:10490000030083E803000EF110030FCB8DE80F00C6
:104910009EE80F00DFF80491C847002840F0948318
:10492000DFF814E104AB08AA12E9030083E80300EE
:104930000EF110030FCB8DE80F009EE80F00DFF89B
:10494000DC90C847002840F0E683DFF8F0E004ABD5
:1049500008AA12E9030083E803000EF110030FCB4D
:104960008DE80F009EE80F00DFF8B090C8470028E0
:1049700040F03884DFF8C8E004AB08AA12E903006D
:1049800083E803000EF110030FCB8DE80F009EE8C3
:104990000F00DFF88890C847002840F08B84DFF8CC
:1049A000A4E004AB08AA12E9030083E803000EF1B7
:1049B00010030FCB8DE80F009EE80F00DFF85C902E
:1049C000C847002870D0114B1B68042B40F0268587
:1049D0000F4B1A680F4B1B689A4200F0B5840120F8
:1049E0000D4B984701233B70084B1A68002A07DDDE
:1049F000074B03EB8202002143F8041B9342FBD1D7
:104A00000022024B1A604FE03400402000C94020D1
:104A100014C940209401402065404000DD4440001E
:104A2000540040207400402094004020B4004020F6
:104A3000D4004020F40040201401402034014020E4
:104A400054014020740140200123B34A13769BE8AF
:104A50000F008DE80F00B04B0FCBDFF8E492C84792
:104A60006420C0470023AC4A13769BE80F008DE812
:104A70000F00A94B0FCBC847A84B1B68042B71D064
:104A80000121A74A42F823100B44A44A1360A54B06
:104A90009847A24B1B68012B6DD0022B75D0032BBE
:104AA0007ED0042B00F087803B78DBB2012B3FF4F3
:104AB000C9AD00234FF4FA7206A99B480068DFF8DD
:104AC0008492C8470028EFD004AB08AA12E903007B
:104AD00083E8030095E80F008DE80F0094E80F00CD
:104AE000DFF86492C84700283FF48AAE012323769A
:104AF00095E80F008DE80F0094E80F00DFF8409272
:104B0000C8476420C0470023237695E80F008DE84E
:104B10000F0094E80F00C847804B1B68042B3FF43C
:104B20000EAE00217E4A42F8231001337B4A136007
:104B30007C4B9847794B1B68012B3FF409AE022B45
:104B40003FF410AE032B3FF418AE042BACD101237D
:104B500000934FF4E173822274497548DFF8EC91B9
:104B6000C847A1E76E4A0023136053609360D36087
:104B70006A4A13608BE700934FF4E17382226D4918
:104B80006B48DFF8C891C8478EE7012300934FF4C4
:104B9000E173822268496648DFF8B091C84783E72D
:104BA000012300934FF4E173822264496048DFF8E7
:104BB0009C91C84778E7012300934FF4E173822268
:104BC0005A495B48DFF88491C8476DE7DFF880A158
:104BD00001238AF818300AF1100999E80F008DE8CE
:104BE0000F009AE80F00564EB0476420C0470023DC
:104BF0008AF8183099E80F008DE80F009AE80F0046
:104C0000B047464B1B68042B1ED00221444A42F891
:104C100023100133414A1360424B98473F4B1B68B6
:104C2000012B1AD0022B22D0032B2BD0042B7FF484
:104C30003BAF012300934FF4E17382223B493C4890
:104C4000DFF80891C8472FE7354A00231360536007
:104C50009360D360314A1360DEE700934FF4E17351
:104C6000822234493248DFF8E490C8471CE7012328
:104C700000934FF4E17382222F492D48DFF8CC9046
:104C8000C84711E7012300934FF4E17382222B49B7
:104C90002748DFF8B890C84706E7DFF8B8A0012337
:104CA0008AF818300AF1100999E80F008DE80F0012
:104CB0009AE80F00224EB0476420C04700238AF8CC
:104CC000183099E80F008DE80F009AE80F00B04700
:104CD000124B1B68042B3FD00321114A42F82310CA
:104CE00001330E4A13600F4B98470C4B1B68012B86
:104CF0003BD0022B43D0032B4CD0042B7FF4D4AEFB
:104D0000012300934FF4E173822208490848DFF839
:104D10003C90C847C8E600BF3400402000C940208E
:104D200014C94020CD4040004CCA402034B9410055
:104D3000508D40006C9640002CB9410030B94100C4
:104D400055414000612B4000DD444000F5404000EB
:104D50005400402074004020AE4A0023136053608A
:104D60009360D360AC4A1360BDE700934FF4E173E6
:104D70008222AA49AA48DFF8C092C84794E60123D4
:104D800000934FF4E1738222A649A548DFF8A89268
:104D9000C84789E6012300934FF4E1738222A249B8
:104DA0009F48DFF89492C8477EE6DFF890A201237F
:104DB0008AF818300AF1100999E80F008DE80F0001
:104DC0009AE80F00994EB0476420C04700238AF844
:104DD000183099E80F008DE80F009AE80F00B047EF
:104DE0008D4B1B68042B1ED004218A4A42F82310E5
:104DF0000133894A13608E4B9847874B1B68012B00
:104E00001AD0022B22D0032B2BD0042B7FF44CAED4
:104E1000012300934FF4E173822286498048DFF832
:104E20001892C84740E67B4A0023136053609360A2
:104E3000D360794A1360DEE700934FF4E173822276
:104E400076497748DFF8F091C8472DE601230093B3
:104E50004FF4E173822273497148DFF8DC91C8474F
:104E600022E6012300934FF4E17382226E496C48DD
:104E7000DFF8C491C84717E6DFF8C4A101238AF818
:104E800018300AF1100999E80F008DE80F009AE830
:104E90000F00664EB0476420C04700238AF81830E0
:104EA00099E80F008DE80F009AE80F00B0475A4BC1
:104EB0001B68042B1ED00521564A42F823100133EB
:104EC000554A13605A4B9847534B1B68012B1AD015
:104ED000022B22D0032B2BD0042B7FF4E5AD012332
:104EE00000934FF4E173822252494D48DFF8489114
:104EF000C847D9E5474A0023136053609360D360E5
:104F0000454A1360DEE700934FF4E1738222434980
:104F10004348DFF82491C847C6E5012300934FF4C6
:104F2000E17382223F493E48DFF80C91C847BBE558
:104F3000012300934FF4E17382223B493848DFF8A4
:104F4000F890C847B0E5DFF8FCA001238AF81830D4
:104F50000AF1100999E80F008DE80F009AE80F0098
:104F6000324EB0476420C04700238AF8183099E8D1
:104F70000F008DE80F009AE80F00B047264B1B6822
:104F8000042B1ED00621234A42F823100133224A63
:104F90001360274B9847204B1B68012B1AD0022B1C
:104FA00022D0032B2BD0042B7FF47EAD0123009362
:104FB0004FF4E17382221F491948DFF87C90C847FB
:104FC00072E5144A0023136053609360D360124A61
:104FD0001360DEE700934FF4E17382220F4910481B
:104FE000DFF85490C8475FE5012300934FF4E17365
:104FF00082220C490A48DFF84090C84754E5012353
:1050000000934FF4E173822207490548DFF82890A6
:10501000C84749E514C9402000C940206C964000AB
:10502000508D40002CB9410030B94100554140003D
:10503000CD40400034B94100F5404000940040208C
:10504000B4004020D4004020DFF8E8A201238AF811
:1050500018300AF1100999E80F008DE80F009AE85E
:105060000F00AB4EB0476420C04700238AF81830C9
:1050700099E80F008DE80F009AE80F00B047A54BA4
:105080001B68042B1ED00721A34A42F823100133CA
:10509000A04A1360A14B98479E4B1B68012B1AD066
:1050A000022B22D0032B2BD0042B7FF4FDAC012349
:1050B00000934FF4E173822299499A48DFF878927D
:1050C000C847F1E4944A0023136053609360D360AF
:1050D000904A1360DEE700934FF4E1738222924915
:1050E0009048DFF85492C847DEE4012300934FF460
:1050F000E17382228D498B48DFF83C92C847D3E4A4
:10510000012300934FF4E173822289498548DFF837
:105110002892C847C8E4DFF824A201238AF818308F
:105120000AF1100999E80F008DE80F009AE80F00C6
:10513000774EB0476420C04700238AF8183099E8BA
:105140000F008DE80F009AE80F00B047714B1B6805
:10515000042B1ED00821704A42F8231001336D4AF7
:1051600013606E4B98476B4B1B68012B1AD0022BB8
:1051700022D0032B2BD0042B7FF496AC0123009379
:105180004FF4E173822266496648DFF8AC91C84764
:105190008AE4614A0023136053609360D3605D4AE0
:1051A0001360DEE700934FF4E17382225E495D48AD
:1051B000DFF88491C84777E4012300934FF4E1734B
:1051C00082225A495748DFF87091C8476CE401239E
:1051D00000934FF4E173822255495248DFF8589109
:1051E000C84761E4DFF858A101238AF818300AF1B2
:1051F000100999E80F008DE80F009AE80F00444E5F
:10520000B0476420C04700238AF8183099E80F009F
:105210008DE80F009AE80F00B0473E4B1B68042B47
:105220001ED009213C4A42F823100133394A136049
:105230003A4B9847374B1B68012B1AD0022B22D0D0
:10524000032B2BD0042B7FF42FAC012300934FF4BE
:10525000E173822232493348DFF8DC90C84723E407
:105260002D4A0023136053609360D360294A136072
:10527000DEE700934FF4E17382222B492948DFF8DF
:10528000B890C84710E4012300934FF4E1738222E1
:1052900026492448DFF8A090C84705E4012300937D
:1052A0004FF4E173822222491E48DFF88C90C847F0
:1052B000FFF7FABBDFF88CA001238AF818300AF157
:1052C000100999E80F008DE80F009AE80F00104EC2
:1052D000B0476420C04700238AF8183099E80F00CF
:1052E0008DE80F009AE80F00B0470A4B1A68002AB1
:1052F00007DD094B03EB8202002143F8041B9A42AD
:10530000FBD10022034B1A60044B9847FFF7CCBB3C
:105310005541400000C9402014C94020CD40400004
:1053200034B94100508D40006C9640002CB94100CA
:1053300030B94100F4004020F54040001401402005
:1053400034014020540140203F4B5A683F4B5B687A
:105350009A424DD13C4B9A683C4B9B689A4215D07F
:1053600001203B4B984701233B703A4B1B68002BB5
:1053700007DD354A02EB8303002142F8041B934208
:10538000FBD10022334B1A60FFF78EBB2E4BDA683D
:105390002E4BDB689A4215D001202D4B98470123F4
:1053A0003B702C4B1B68002B07DD274A02EB830365
:1053B000002142F8041B9A42FBD10022254B1A60BF
:1053C000FFF772BB0220224B984701233B70214B11
:1053D0001B68002B07DD1C4A02EB8303002142F807
:1053E000041B9342FBD100221A4B1A60FFF75CBBEF
:1053F0000120174B984701233B70164B1B68002B6D
:1054000007DD114A02EB8303002142F8041B93429B
:10541000FBD100220F4B1A60FFF746BB01200C4B5B
:10542000984701233B700B4B1A68002A07DD064B97
:1054300003EB8202002143F8041B9A42FBD10022B5
:10544000044B1A60FFF730BB14C940209401402080
:105450006540400000C9402080B58AB03D4B984768
:105460003D4B98473D4E3E4B1E603E4A3E4B1A60B8
:105470003E4A3F4B1A604FF4E1330493C023059337
:105480004FF4006506950024079408940E20394FC8
:10549000B847394A04A93046384B98473046384B0C
:1054A00098473046374B9847DFF82081D8F80030CE
:1054B00021469868344EB047D8F8003021465868E5
:1054C000B0470A20B847314E012229463046304BBA
:1054D000984701232A464FF0205130462D4FB847B8
:1054E0002D4B009350232A460A2130462B4FB847B4
:1054F000294630462A4B98472A4B4FF480621A605F
:10550000E02283F80A230122274B1A7003940294A5
:105510000194009423464FF4007224492448254CFA
:10552000A047012802D02448244B98470023039326
:105530000293019300934FF48062214921481D4C4E
:10554000A047012802D01C481C4B98471E4B984787
:10555000FEE700BF65084000F50A400000800240F9
:10556000F4C94020613F4000F0C94020853E400022
:10557000ECC94020C918400080D1F0083D1D400012
:10558000911D4000971D400059654000000E0E40DF
:10559000EF1340004D144000E93D4000D516400097
:1055A0000F15400000E100E011C9402000B94100A2
:1055B000B9434000412E400004B94100B55D4000B0
:1055C00028B941002545400075304000B001402019
:1055D00081F0004102E000BF83F0004330B54FEAA4
:1055E00041044FEA430594EA050F08BF90EA020F11
:1055F0001FBF54EA000C55EA020C7FEA645C7FEAA4
:10560000655C00F0E2804FEA5454D4EB5555B8BFC6
:105610006D420CDD2C4480EA020281EA030382EA37
:10562000000083EA010180EA020281EA0303362DC9
:1056300088BF30BD11F0004F4FEA01314FF4801C9C
:105640004CEA113102D0404261EB410113F0004FAE
:105650004FEA03334CEA133302D0524263EB430365
:1056600094EA050F00F0A780A4F10104D5F1200E03
:105670000DDB02FA0EFC22FA05F2801841F100015E
:1056800003FA0EF2801843FA05F359410EE0A5F132
:1056900020050EF1200E012A03FA0EFC28BF4CF063
:1056A000020C43FA05F3C01851EBE37101F0004519
:1056B00007D54FF0000EDCF1000C7EEB00006EEB26
:1056C0000101B1F5801F1BD3B1F5001F0CD34908B0
:1056D0005FEA30004FEA3C0C04F101044FEA445207
:1056E00012F5800F80F09A80BCF1004F08BF5FEA8E
:1056F000500C50F1000041EB045141EA050130BD6E
:105700005FEA4C0C404141EB010111F4801FA4F110
:105710000104E9D191F0000F04BF01460020B1FA65
:1057200081F308BF2033A3F10B03B3F120020CDA9D
:105730000C3208DD02F1140CC2F10C0201FA0CF07B
:1057400021FA02F10CE002F11402D8BFC2F1200CE0
:1057500001FA02F120FA0CFCDCBF41EA0C01904096
:10576000E41AA2BF01EB0451294330BD6FEA0404DF
:105770001F3C1CDA0C340EDC04F11404C4F12002CA
:1057800020FA04F001FA02F340EA030021FA04F3DC
:1057900045EA030130BDC4F10C04C4F1200220FA33
:1057A00002F001FA04F340EA0300294630BD21FA71
:1057B00004F0294630BD94F0000F83F4801306BF37
:1057C00081F480110134013D4EE77FEA645C18BF2B
:1057D0007FEA655C29D094EA050F08BF90EA020FC2
:1057E00005D054EA000C04BF1946104630BD91EABA
:1057F000030F1EBF0021002030BD5FEA545C05D1BD
:105800004000494128BF41F0004130BD14F58004FB
:105810003CBF01F5801130BD01F0004545F0FE416F
:1058200041F470014FF0000030BD7FEA645C1ABFA4
:10583000194610467FEA655C1CBF0B46024650EADB
:10584000013406BF52EA033591EA030F41F4002107
:1058500030BD00BF90F0000F04BF0021704730B58D
:105860004FF4806404F132044FF000054FF0000162
:1058700050E700BF90F0000F04BF0021704730B523
:105880004FF4806404F1320410F0004548BF4042F8
:105890004FF000013EE700BF42004FEAE2014FEA4D
:1058A00031014FEA02701FBF12F07F4393F07F4F28
:1058B00081F06051704792F0000F14BF93F07F4F5A
:1058C000704730B54FF4607401F0004521F000419D
:1058D00020E700BF50EA010208BF704730B54FF023
:1058E00000050AE050EA010208BF704730B511F028
:1058F000004502D5404261EB41014FF4806404F160
:1059000032045FEA915C3FF4DCAE4FF003025FEAE1
:10591000DC0C18BF03325FEADC0C18BF033202EB69
:10592000DC02C2F1200300FA03FC20FA02F001FAC3
:1059300003FE40EA0E0021FA02F11444C1E600BF62
:1059400070B54FF0FF0C4CF4E06C1CEA11541DBF15
:105950001CEA135594EA0C0F95EA0C0F00F0DEF8E0
:105960002C4481EA030621EA4C5123EA4C5350EAC5
:10597000013518BF52EA033541F4801143F4801316
:1059800038D0A0FB02CE4FF00005E1FB02E506F0A7
:105990000042E0FB03E54FF00006E1FB03569CF0FC
:1059A000000F18BF4EF0010EA4F1FF04B6F5007F02
:1059B00064F5407404D25FEA4E0E6D4146EB060674
:1059C00042EAC62141EA55514FEAC52040EA5E50FD
:1059D0004FEACE2EB4F1FD0C88BFBCF5E06F1ED8A7
:1059E000BEF1004F08BF5FEA500E50F1000041EBDE
:1059F000045170BD06F0004646EA010140EA02008B
:105A000081EA0301B4EB5C04C2BFD4EB0C0541EAAC
:105A1000045170BD41F480114FF0000E013C00F3C1
:105A2000AB8014F1360FDEBF002001F0004170BDE5
:105A3000C4F10004203C35DA0C341BDC04F11404FE
:105A4000C4F1200500FA05F320FA04F001FA05F28A
:105A500040EA020001F0004221F0004110EBD37057
:105A600021FA04F642EB06015EEA430E08BF20EA83
:105A7000D37070BDC4F10C04C4F1200500FA04F326
:105A800020FA05F001FA04F240EA020001F00041B8
:105A900010EBD37041F100015EEA430E08BF20EA2B
:105AA000D37070BDC4F1200500FA05F24EEA020E73
:105AB00020FA04F301FA05F243EA020321FA04F0A2
:105AC00001F0004121FA04F220EA020000EBD37059
:105AD0005EEA430E08BF20EAD37070BD94F0000F59
